:060000000A128A11182902
:10000800F000030EF10003138312061C850A861CF8
:1000180085030B100B197021710E8300F00E700E02
:020028000900CD
:100200008A010A140F3982073F3406345B344F34B5
:1002100066346D347D3407347F346F3477347C3406
:0802200039345E347934713485
:10023000031783168801890103138316051085109F
:1002400005118511031383160614861403138316F0
:1002500007108710071187110712871207138713DA
:1002600003138316081088100811881108128812C9
:1002700008138813031383168113031383161514AD
:1002800095141511951115129512151395136921D1
:1002900003138316033096000313831206080B1012
:1002A0008B178B158B160B1103138316811281117B
:1002B000011481140115031383128501860187013E
:1002C00088010508002187006129013081000B1198
:1002D0000800031383160F138F160F120F14080054
:1002E0000B1D70296521F20A7208002188000800A0
:04400E00C530FF3F7B
:00000001FF
