:020000040000FA
:060000000A128A110E280D
:10000800FE00030EF1000408F2000A08F3000A12C9
:100018008A1190280A128A11112883133530FD009D
:100028000230FE000130FF002B3084000A128A11D2
:10003800E1210A128A11F501F601F701F80183019D
:100048000A128A11F02983120313A501A11F2D2872
:100058002E283528A009A109A00A0319A10AA5017B
:10006800A50AA31F382839284228A209A309A20AE9
:100078000319A30A0130F4007408A506A601A70114
:1000880020082104031949284A288128A401A40A20
:10009800582801300310A00DA10DFF3E031D4E2866
:1000A8000130F4007408A407A11F5B285C284D28C0
:1000B80001300310A60DA70DFF3E031D5D28210882
:1000C8002302031D692820082202031C6C286D28BE
:1000D80074282008A2022108031CA303A3022614E3
:1000E80001300310A10CA00CFF3E031D7528013040
:1000F800A402031D802881285C2825080319852867
:1001080086288B28A609A709A60A0319A70A27087B
:10011800A1002608A00008000B1D93289428C628D3
:10012800831203130611061437082B3E8400831329
:10013800000888000130F5000030F60075037604E9
:10014800031DA728A828B3280610861436082B3EB6
:100158008400000888000230F5000030F600023004
:1001680075067604031DB928BA28C3288610061513
:1001780035082B3E840000088800F501F6010B11B4
:10018800FF308100831203130C1FCB28CC28EB28E7
:100198001F0CF000700C0F39003A031DD428D52825
:1001A800D7281E0887001F0CF000700C0F39013A81
:1001B800031DDF28E028E4281E08F0007008F80076
:1001C8009F140C131030F000F00BE828000073089F
:1001D8008A0072088400710E8300FE0E7E0E0900EC
:1001E800643083120313A0000030A1007808A8002F
:1001F800A9012808A2002908A3000A128A112720A9
:100208000A128A11831203132008AA002A08B700C9
:100218006430A0000030A1007808A800A9012808CF
:10022800A2002908A3000A128A114F210A128A1172
:10023800831203132008AA002A08F9000A30A00034
:100248000030A1007908A800A9012808A2002908FF
:10025800A3000A128A1127200A128A118312031393
:100268002008AA002A08B6000A30A0000030A10021
:100278007908A800A9012808A2002908A3000A12E1
:100288008A114F210A128A11831203132008AA0027
:100298002A08B500080083120313A501A31F5529D6
:1002A80056295D29A209A309A20A0319A30AA501CF
:1002B800A50AA11F602961296629A009A109A00A28
:1002C8000319A10A2008210403196B296C299B2909
:1002D800A401A40A7A2901300310A00DA10DFF3E44
:1002E800031D70290130F4007408A407A11F7D299B
:1002F8007E296F2921082302031D84292008220250
:10030800031C872988298E292008A2022108031C9A
:10031800A303A30201300310A10CA00CFF3E031D90
:100328008F290130A402031D9A299B297E292508BB
:1003380003199F29A029A529A209A309A20A03191B
:10034800A30A2308A1002208A0000800033083168E
:1003580003178800FF3089008316031305148514DA
:100368000610861006118701880183120313850180
:10037800860187018801831603130F138F160F1246
:100388000F14811281110115811401148B178B161A
:100398000B110B170C17831203130C131F179F173E
:1003A8001F14C3309F05831603139F131F129F1238
:1003B80008007E088A007F0882000A128A11DD215F
:1003C8000A128A118000840A04087D060319003481
:1003D800FF0A0319FE0AE1290A128A11AA210A1240
:1003E8008A11831203139F140A128A11F4200A1225
:1003F8008A11F8290A128A110E283F3406345B3410
:0E0408004F3466346D347D3407347F346F34E6
:04400E00D420FF3F7C
:00000001FF
