:020000040000FA
:060000000A128A110E280D
:10000800FE00030EF1000408F2000A08F3000A12C9
:100018008A114A290A128A11112883133530FD00E2
:100028000230FE001430FF002B3084000A128A11BF
:1000380005220A128A11B501B601B701B801F60105
:10004800F701F801F90183010A128A11D3298312F1
:100058000313A501A11F312832283928A009A109B5
:10006800A00A0319A10AA501A50AA31F3C283D2837
:100078004628A209A309A20A0319A30A0130F40019
:100088007408A506A601A7012008210403194D2814
:100098004E288528A401A40A5C2801300310A00D6D
:1000A800A10DFF3E031D52280130F4007408A40777
:1000B800A11F5F286028512801300310A60DA70D45
:1000C800FF3E031D612821082302031D6D28200817
:1000D8002202031C7028712878282008A20221080F
:1000E800031CA303A302261401300310A10CA00CC7
:1000F800FF3E031D79280130A402031D84288528AA
:1001080060282508031989288A288F28A609A7099D
:10011800A60A0319A70A2708A1002608A0000800B4
:10012800643083120313A0000030A1007608A800F1
:10013800A9012808A2002908A3000A128A112B2065
:100148000A128A11831203132008AA002A08F90048
:100158006430A0000030A1007608A800A901280892
:10016800A2002908A3000A128A11EF200A128A1194
:10017800831203132008AA002A08F7000A30A000F7
:100188000030A1007708A800A9012808A2002908C2
:10019800A3000A128A112B200A128A118312031350
:1001A8002008AA002A08F8000A30A0000030A100A0
:1001B8007708A800A9012808A2002908A3000A12A4
:1001C8008A11EF200A128A11831203132008AA0049
:1001D8002A08B800080083120313A501A31FF528F5
:1001E800F628FD28A209A309A20A0319A30AA50152
:1001F800A50AA11F002901290629A009A109A00A09
:100208000319A10A2008210403190B290C293B29E9
:10021800A401A40A1A2901300310A00DA10DFF3E64
:10022800031D10290130F4007408A407A11F1D291B
:100238001E290F2921082302031D24292008220230
:10024800031C272928292E292008A2022108031C7B
:10025800A303A30201300310A10CA00CFF3E031D51
:100268002F290130A402031D3A293B291E292508FC
:1002780003193F2940294529A209A309A20A0319FC
:10028800A30A2308A1002208A00008000B1D4D297D
:100298004E298029831203130611061479082B3E70
:1002A80084008313000888000130B5000030B600D0
:1002B80035033604031D612962296D290610861449
:1002C80078082B3E8400000888000230B500003012
:1002D800B600023035063604031D732974297D29BA
:1002E8008610061538082B3E840000088800B501E2
:1002F800B6010B11FF308100831203130C1F8529EF
:10030800862997291F0CF000700C0F39003A031D3D
:100318008E298F2992291E08870096291E08F00029
:100328007008F6000C1373088A0072088400710EB6
:100338008300FE0E7E0E0900033083160317880023
:10034800FF308900831603130514851406108610E0
:10035800061187018801831203138501860187012D
:100368008801831603130F138F160F120F148112AF
:1003780081110115811401148B178B160B110B17A2
:100388000C17831203130C131F179F171F14C33066
:100398009F05831603139F131F129F1208000A124A
:1003A8008A11A0210A128A11831203139F1483123F
:1003B80003139F18E029E129F8291F0CF500750C93
:1003C8000F39013A031DE929EA29ED29C3309F05B0
:1003D800F1291F08C33904389F002130F500F50BB7
:1003E800F329831203139F140A128A1194200A1204
:1003F8008A11DB290A128A110E287E088A007F08D2
:1004080082000A128A1101220A128A118000840AC3
:1004180004087D0603190034FF0A0319FE0A052A99
:100428003F3406345B344F3466346D347D340734DE
:040438007F346F346A
:04400E00D420FF3F7C
:00000001FF
