:060000000A128A11182902
:10000800F000030EF100031383120C181F200B19C4
:100018002A20031383128C181920031383128C10BF
:10002800710E8300F00E700E090022181D2822148C
:1000380008002210080003138312E1308F00031315
:1000480083127C308E00A10A0C10080071218810E0
:100058000811771833287508870008153628760898
:0A006800870088140130F706080035
:100200008A010A140F3982073F3406345B344F34B5
:1002100066346D347D3407347F346F3477347C3406
:0802200039345E347934713485
:10023000031783168801890103138316071087109B
:1002400007118711071287120713871303138316E9
:100250000810881008117521031383128B178B1651
:100260000B11031383168C140C14031383128C10BC
:100270000C100313831681128111011481140115CE
:100280000313831290161016901010140313831288
:100290004E30920003138312850186018701880185
:1002A00089010313831664309200031383125D21C6
:1002B000221C642122186C21512921080F39F200D7
:1002C000210E0F39F300080072080021F5007308B1
:1002D0000021F600081408000030F500F6000810B0
:1002E0000800FF3081000B110800031383160F1361
:0802F0008F160F120F14080015
:04400E00D430FF3F6C
:00000001FF
