:060000000A128A11182902
:10000800F000030EF100031383120B188F210B1954
:100018001220710E8300F00E700E09008B2109105A
:1000280089108612061386137A182428FA182828A5
:100038007A192C28FA1930287508880009143428E8
:1000480076088800891437287708880086163A28A1
:100058007808880006173D28790888008617402800
:100068000130FA0608000330FA0608000630FA06DE
:0C00780008000C30FA060800FA0108002D
:100200008A010A140F3982073F3406345B344F34B5
:1002100066346D347D3407347F346F3477347C3406
:0802200039345E347934713485
:10023000031783168801890103138316051085109F
:1002400005118511051285120513851303138316F5
:1002500006148614861206138613031383160710DA
:1002600087100711871107128712071387130313CB
:1002700083160810881008118811081288120813B4
:10028000881303138316091089100313831681132F
:100290000313831615149514151195111512951243
:1002A000151395139521031383160330960003133A
:1002B00083120B1003138316811281110114811410
:1002C00001158B178B158B160B11031383128501E8
:1002D00086018701880189010313831274217B2120
:1002E000031383129C216C2905080F39F200050EB7
:1002F0000F39F300080072080021F500730800218F
:10030000F60021080021F70022080021F80020084B
:100310000021F9000800FD3081000B110800061CC7
:10032000850A861C85030B100800031383160F1320
:100330008F160F120F140800A1010508A0006430E9
:1003400020020318A10A0318A00003189F29A20184
:100350000A3020020318A20A0318A0000318A829D3
:04036000031C080072
:04400E00D430FF3F6C
:00000001FF
