:060000000A128A11142906
:100200008A010A140F3982073F3406345B344F34B5
:1002100066346D347D3407347F346F3477347C3406
:1002200039345E34793471340317831688018901B7
:1002300083120313031383160514851405178517FA
:1002400003138316061086100611861103138316F6
:1002500007108710071187110712871207138713DA
:1002600003138316081003138316C63081005B2125
:10027000031383128501860187018801051C49212A
:10028000851C50210B1D42295721860A0810682120
:100290003E29051C4929F00A700800218700080042
:1002A000851C5029F00B70080021870008000C30D5
:1002B00081000B110800031383160F138F160F1202
:1002C0000F140800830106087002031D08080800C7
:1002D0000608700203196D21080008148601080041
:04400E00C530FF3F7B
:00000001FF
