:060000000A128A1100291A
:1002000003178316880189010313831605148514C7
:100210000515851505160517851703138316061092
:100220008610061186110313831607108710071115
:1002300087110313831608108810081188110812FB
:10024000031383128501860187018801051C312172
:10025000851C3921051D3521851D3D21051E4121A6
:100260002629051C3129860A0800051D3529870A1B
:100270000800851C3929860B0800851D3D29870B40
:0E0280000800051E412906080707880008002F
:04400E00C130FF3F7F
:00000001FF
