:020000040000FA
:060000000A128A110C280F
:10000800FE00030EF0000A08F1000A128A111328F4
:100018000A128A110F2883010A128A115F280B1D00
:10002800162817281F28831203130808013E880082
:100038000B11FF3081000B1C22282328342883123F
:1000480003130618282829282C280708013E8700AA
:1000580086182F28302833280708FF3E87000B1002
:1000680071088A00700E8300FE0E7E0E090083164A
:100078000317880189018316031306148614870160
:1000880088018312031386018701880183160313ED
:100098000F138F160F120F14811281118112811202
:1000A800811303309500161496148B170B148B15B7
:1000B8008B160B1508000A128A113B200A128A11A6
:0800C80064280A128A110C28B9
:04400E00D420FF3F7C
:00000001FF
