:020000040000FA
:060000000A128A110C280F
:10000800FE00030EF1000A08F2000A128A114028C5
:100018000A128A110F2883010A128A115A28831694
:10002800031788018901831603138501860183124A
:10003800031385018601831603130F178F160F16F6
:100048000F148B170B178C160C161812181583160D
:1000580003178715CF308316031399009A0183126B
:100068000313981718131816831603139816831278
:1000780003138C120C120800831203138C1E4528DC
:10008800462848281A0886000C1E4B284C284E285B
:100098002D3099004230F000F00B50280000720813
:1000A8008A00710E8300FE0E7E0E09000A128A1164
:1000B80013200A128A115F280A128A110C280030AC
:0C00C8008A000408840A820700342D34EA
:04400E00D420FF3F7C
:00000001FF
